:03000000020105F5
:0C010500787FE4F6D8FD75811802014CEB
:0A027900039F250D9949411F01194B
:0C0260000A084C4A4A2D362E36322D304A
:03002300020026B2
:10002600C0E0C0F0C083C082C0D075D000C000C0A0
:0D00360001C002C003C004C005C006C00721
:10004300C2AF30987AC298859918E518B4311490E4
:10005300027A1202537FF012021612028312026D09
:10006300751131E518B4321490027B1202537FF0FC
:1000730012021612028C12026D751132E518B43396
:100083001490027C1202537FF012021612029E1287
:10009300026D751133E518B4341490027D120253C6
:1000A3007FF012021612029512026D751134E518D3
:1000B300B4350C90027E12025312026D7511357520
:1000C3001700C3E517940A748094805018740825A8
:1000D30017F8E6F5993099FDC2997F017E00120168
:0700E300E1051780DDD2AF3B
:1000EA00D007D006D005D004D003D002D001D0006A
:0B00FA00D0D0D082D083D0F0D0E03214
:10019100900279E493F580E4F516C3E51694327480
:1001A100809480500E7F017E001201E120B2E805AB
:0B01B1001680E712026D12022C80FE87
:10022C0075985075C83475878075CBFF75CAD9D24F
:04023C00ACD2AF226F
:1001E100E4FDEDC39FE49E5012E4FCECD3949474BF
:0B01F10080948050030C80F30D80E729
:0101FC0022E0
:10000300D3EF9400EE940040147D6E7C00ED1D70E0
:0D001300011CED4C70F7EF1F70E61E80E33E
:0100200022BD
:10021600AD071FED600FE4FEEEC3940D748094806D
:0502260050EE0E80F314
:01022B0022B0
:100240007D0A7C3200DCFDDDF9EF1F70011E144ECB
:0202500070EE4E
:010252002289
:04025300E493F580BB
:09025700C292C293C294C2952226
:09028300D292C293D294C29522DA
:09028C00C292D293C294D29522D1
:09029500D292C293C294D29522C8
:09029E00C292D293D294C29522BF
:0C026D00C2A37F327E001201E1D2A32266
:0802A7008F993099FDC29922E4
:1001BC008B138A148915AB13AA14A9151201FD60AF
:1001CC00130515E5157002051414F91201FDFF1243
:0501DC0002A780E222F1
:10011100020191E493A3F8E493A34003F68001F272
:1001210008DFF48029E493A3F85407240CC8C333EF
:10013100C4540F4420C8834004F456800146F6DFBE
:10014100E4800B0102040810204080900260E47EEC
:10015100019360BCA3FF543F30E509541FFEE493B3
:10016100A360010ECF54C025E060A840B8E493A37A
:10017100FAE493A3F8E493A3C8C582C8CAC583CAA5
:10018100F0A3C8C582C8CAC583CADFE9DEE780BE5D
:01026C000091
:1001FD00BB010689828A83E0225002E722BBFE0200
:09020D00E32289828A83E4932232
:00000001FF
